{
  "contractName": "Lotteria",
  "abi": [
    {
      "inputs": [],
      "stateMutability": "nonpayable",
      "type": "constructor"
    },
    {
      "anonymous": false,
      "inputs": [
        {
          "indexed": false,
          "internalType": "address",
          "name": "bidder",
          "type": "address"
        },
        {
          "indexed": false,
          "internalType": "uint256",
          "name": "tokenId",
          "type": "uint256"
        },
        {
          "indexed": false,
          "internalType": "uint256",
          "name": "defaultBid",
          "type": "uint256"
        }
      ],
      "name": "BidCorrect",
      "type": "event"
    },
    {
      "anonymous": false,
      "inputs": [
        {
          "indexed": true,
          "internalType": "address",
          "name": "previousOwner",
          "type": "address"
        },
        {
          "indexed": true,
          "internalType": "address",
          "name": "newOwner",
          "type": "address"
        }
      ],
      "name": "OwnershipTransferred",
      "type": "event"
    },
    {
      "inputs": [],
      "name": "owner",
      "outputs": [
        {
          "internalType": "address",
          "name": "",
          "type": "address"
        }
      ],
      "stateMutability": "view",
      "type": "function"
    },
    {
      "inputs": [],
      "name": "renounceOwnership",
      "outputs": [],
      "stateMutability": "nonpayable",
      "type": "function"
    },
    {
      "inputs": [
        {
          "internalType": "address",
          "name": "newOwner",
          "type": "address"
        }
      ],
      "name": "transferOwnership",
      "outputs": [],
      "stateMutability": "nonpayable",
      "type": "function"
    },
    {
      "inputs": [
        {
          "internalType": "address",
          "name": "_lotteryTokenContract",
          "type": "address"
        }
      ],
      "name": "initLotteryTokenContract",
      "outputs": [],
      "stateMutability": "nonpayable",
      "type": "function"
    },
    {
      "inputs": [],
      "name": "getLotteryTokenContract",
      "outputs": [
        {
          "internalType": "address",
          "name": "",
          "type": "address"
        }
      ],
      "stateMutability": "view",
      "type": "function"
    },
    {
      "inputs": [
        {
          "internalType": "address",
          "name": "_lotteryInfoContract",
          "type": "address"
        }
      ],
      "name": "initLotteryInfoContract",
      "outputs": [],
      "stateMutability": "nonpayable",
      "type": "function"
    },
    {
      "inputs": [],
      "name": "getLotteryInfoContract",
      "outputs": [
        {
          "internalType": "address",
          "name": "",
          "type": "address"
        }
      ],
      "stateMutability": "view",
      "type": "function"
    },
    {
      "inputs": [
        {
          "internalType": "string",
          "name": "_name",
          "type": "string"
        },
        {
          "internalType": "uint256",
          "name": "_defaultBid",
          "type": "uint256"
        },
        {
          "internalType": "uint256",
          "name": "_endingTimeLottery",
          "type": "uint256"
        }
      ],
      "name": "setItemToWin",
      "outputs": [],
      "stateMutability": "nonpayable",
      "type": "function"
    },
    {
      "inputs": [
        {
          "internalType": "uint256",
          "name": "_tokenIds",
          "type": "uint256"
        }
      ],
      "name": "placeABid",
      "outputs": [],
      "stateMutability": "nonpayable",
      "type": "function"
    },
    {
      "inputs": [
        {
          "internalType": "uint256",
          "name": "_tokenIds",
          "type": "uint256"
        }
      ],
      "name": "pickTheWinner",
      "outputs": [],
      "stateMutability": "nonpayable",
      "type": "function"
    }
  ],
  "bytecode": "0x608060405234801561001057600080fd5b5061002d61002261003260201b60201c565b61003a60201b60201c565b6100fe565b600033905090565b60008060009054906101000a900473ffffffffffffffffffffffffffffffffffffffff169050816000806101000a81548173ffffffffffffffffffffffffffffffffffffffff021916908373ffffffffffffffffffffffffffffffffffffffff1602179055508173ffffffffffffffffffffffffffffffffffffffff168173ffffffffffffffffffffffffffffffffffffffff167f8be0079c531659141344cd1fd0a4f28419497f9722a3daafe3b4186f6b6457e060405160405180910390a35050565b611c008061010d6000396000f3fe608060405234801561001057600080fd5b506004361061009e5760003560e01c80638da5cb5b116100665780638da5cb5b1461011f578063dfae30351461013d578063f1d996fb14610159578063f2fde38b14610177578063f5c0a143146101935761009e565b806369f66297146100a3578063715018a6146100c157806376b8905c146100cb57806382db4f19146100e757806389549fdc14610103575b600080fd5b6100ab6101af565b6040516100b891906110ee565b60405180910390f35b6100c96101d9565b005b6100e560048036038101906100e09190611149565b610261565b005b61010160048036038101906100fc91906111ac565b610321565b005b61011d600480360381019061011891906111ac565b6106cf565b005b610127610ba6565b60405161013491906110ee565b60405180910390f35b61015760048036038101906101529190611149565b610bcf565b005b610161610c8f565b60405161016e91906110ee565b60405180910390f35b610191600480360381019061018c9190611149565b610cb9565b005b6101ad60048036038101906101a8919061131f565b610db0565b005b6000600160009054906101000a900473ffffffffffffffffffffffffffffffffffffffff16905090565b6101e1610f04565b73ffffffffffffffffffffffffffffffffffffffff166101ff610ba6565b73ffffffffffffffffffffffffffffffffffffffff1614610255576040517f08c379a000000000000000000000000000000000000000000000000000000000815260040161024c906113eb565b60405180910390fd5b61025f6000610f0c565b565b610269610f04565b73ffffffffffffffffffffffffffffffffffffffff16610287610ba6565b73ffffffffffffffffffffffffffffffffffffffff16146102dd576040517f08c379a00000000000000000000000000000000000000000000000000000000081526004016102d4906113eb565b60405180910390fd5b80600260006101000a81548173ffffffffffffffffffffffffffffffffffffffff021916908373ffffffffffffffffffffffffffffffffffffffff16021790555050565b610329610f04565b73ffffffffffffffffffffffffffffffffffffffff16610347610ba6565b73ffffffffffffffffffffffffffffffffffffffff161461039d576040517f08c379a0000000000000000000000000000000000000000000000000000000008152600401610394906113eb565b60405180910390fd5b600160009054906101000a900473ffffffffffffffffffffffffffffffffffffffff1673ffffffffffffffffffffffffffffffffffffffff16637792cb14826040518263ffffffff1660e01b81526004016103f8919061141a565b602060405180830381865afa158015610415573d6000803e3d6000fd5b505050506040513d601f19601f82011682018060405250810190610439919061144a565b421161047a576040517f08c379a0000000000000000000000000000000000000000000000000000000008152600401610471906114c3565b60405180910390fd5b6000600160009054906101000a900473ffffffffffffffffffffffffffffffffffffffff1673ffffffffffffffffffffffffffffffffffffffff16635fa38280836040518263ffffffff1660e01b81526004016104d7919061141a565b600060405180830381865afa1580156104f4573d6000803e3d6000fd5b505050506040513d6000823e3d601f19601f8201168201806040525081019061051d91906115c0565b5190506000600160009054906101000a900473ffffffffffffffffffffffffffffffffffffffff1673ffffffffffffffffffffffffffffffffffffffff16635fa38280846040518263ffffffff1660e01b815260040161057d919061141a565b600060405180830381865afa15801561059a573d6000803e3d6000fd5b505050506040513d6000823e3d601f19601f820116820180604052508101906105c391906115c0565b905060038211610608576040517f08c379a00000000000000000000000000000000000000000000000000000000081526004016105ff9061167b565b60405180910390fd5b6000818361061586610fd0565b61061f91906116ca565b815181106106305761062f6116fb565b5b60200260200101519050600160009054906101000a900473ffffffffffffffffffffffffffffffffffffffff1673ffffffffffffffffffffffffffffffffffffffff1663dd0111e985836040518363ffffffff1660e01b815260040161069792919061172a565b600060405180830381600087803b1580156106b157600080fd5b505af11580156106c5573d6000803e3d6000fd5b5050505050505050565b600160009054906101000a900473ffffffffffffffffffffffffffffffffffffffff1673ffffffffffffffffffffffffffffffffffffffff16637792cb14826040518263ffffffff1660e01b815260040161072a919061141a565b602060405180830381865afa158015610747573d6000803e3d6000fd5b505050506040513d601f19601f8201168201806040525081019061076b919061144a565b42106107ac576040517f08c379a00000000000000000000000000000000000000000000000000000000081526004016107a39061179f565b60405180910390fd5b6107b4610ba6565b73ffffffffffffffffffffffffffffffffffffffff163373ffffffffffffffffffffffffffffffffffffffff1603610821576040517f08c379a00000000000000000000000000000000000000000000000000000000081526004016108189061180b565b60405180910390fd5b6000600160009054906101000a900473ffffffffffffffffffffffffffffffffffffffff1673ffffffffffffffffffffffffffffffffffffffff166390546d43836040518263ffffffff1660e01b815260040161087e919061141a565b602060405180830381865afa15801561089b573d6000803e3d6000fd5b505050506040513d601f19601f820116820180604052508101906108bf919061144a565b905080600260009054906101000a900473ffffffffffffffffffffffffffffffffffffffff1673ffffffffffffffffffffffffffffffffffffffff166370a08231336040518263ffffffff1660e01b815260040161091d91906110ee565b602060405180830381865afa15801561093a573d6000803e3d6000fd5b505050506040513d601f19601f8201168201806040525081019061095e919061144a565b101561099f576040517f08c379a00000000000000000000000000000000000000000000000000000000081526004016109969061189d565b60405180910390fd5b600260009054906101000a900473ffffffffffffffffffffffffffffffffffffffff1673ffffffffffffffffffffffffffffffffffffffff166323b872dd336109e6610ba6565b846040518463ffffffff1660e01b8152600401610a05939291906118bd565b6020604051808303816000875af1158015610a24573d6000803e3d6000fd5b505050506040513d601f19601f82011682018060405250810190610a48919061192c565b50600160009054906101000a900473ffffffffffffffffffffffffffffffffffffffff1673ffffffffffffffffffffffffffffffffffffffff166360365e0c83836040518363ffffffff1660e01b8152600401610aa6929190611959565b600060405180830381600087803b158015610ac057600080fd5b505af1158015610ad4573d6000803e3d6000fd5b50505050600160009054906101000a900473ffffffffffffffffffffffffffffffffffffffff1673ffffffffffffffffffffffffffffffffffffffff16632ab29df783336040518363ffffffff1660e01b8152600401610b3592919061172a565b600060405180830381600087803b158015610b4f57600080fd5b505af1158015610b63573d6000803e3d6000fd5b505050507f4ff4dda4a86440a97ad1af9a4ad143f0180938f803dbb34e09f327231c12add7338383604051610b9a93929190611982565b60405180910390a15050565b60008060009054906101000a900473ffffffffffffffffffffffffffffffffffffffff16905090565b610bd7610f04565b73ffffffffffffffffffffffffffffffffffffffff16610bf5610ba6565b73ffffffffffffffffffffffffffffffffffffffff1614610c4b576040517f08c379a0000000000000000000000000000000000000000000000000000000008152600401610c42906113eb565b60405180910390fd5b80600160006101000a81548173ffffffffffffffffffffffffffffffffffffffff021916908373ffffffffffffffffffffffffffffffffffffffff16021790555050565b6000600260009054906101000a900473ffffffffffffffffffffffffffffffffffffffff16905090565b610cc1610f04565b73ffffffffffffffffffffffffffffffffffffffff16610cdf610ba6565b73ffffffffffffffffffffffffffffffffffffffff1614610d35576040517f08c379a0000000000000000000000000000000000000000000000000000000008152600401610d2c906113eb565b60405180910390fd5b600073ffffffffffffffffffffffffffffffffffffffff168173ffffffffffffffffffffffffffffffffffffffff1603610da4576040517f08c379a0000000000000000000000000000000000000000000000000000000008152600401610d9b90611a2b565b60405180910390fd5b610dad81610f0c565b50565b610db8610f04565b73ffffffffffffffffffffffffffffffffffffffff16610dd6610ba6565b73ffffffffffffffffffffffffffffffffffffffff1614610e2c576040517f08c379a0000000000000000000000000000000000000000000000000000000008152600401610e23906113eb565b60405180910390fd5b428111610e6e576040517f08c379a0000000000000000000000000000000000000000000000000000000008152600401610e6590611a97565b60405180910390fd5b600160009054906101000a900473ffffffffffffffffffffffffffffffffffffffff1673ffffffffffffffffffffffffffffffffffffffff1663f5c0a1438484846040518463ffffffff1660e01b8152600401610ecd93929190611b2e565b600060405180830381600087803b158015610ee757600080fd5b505af1158015610efb573d6000803e3d6000fd5b50505050505050565b600033905090565b60008060009054906101000a900473ffffffffffffffffffffffffffffffffffffffff169050816000806101000a81548173ffffffffffffffffffffffffffffffffffffffff021916908373ffffffffffffffffffffffffffffffffffffffff1602179055508173ffffffffffffffffffffffffffffffffffffffff168173ffffffffffffffffffffffffffffffffffffffff167f8be0079c531659141344cd1fd0a4f28419497f9722a3daafe3b4186f6b6457e060405160405180910390a35050565b600080600160009054906101000a900473ffffffffffffffffffffffffffffffffffffffff1673ffffffffffffffffffffffffffffffffffffffff16635fa38280846040518263ffffffff1660e01b815260040161102e919061141a565b600060405180830381865afa15801561104b573d6000803e3d6000fd5b505050506040513d6000823e3d601f19601f8201168201806040525081019061107491906115c0565b51905044428260405160200161108c93929190611b8d565b6040516020818303038152906040528051906020012060001c915050919050565b600073ffffffffffffffffffffffffffffffffffffffff82169050919050565b60006110d8826110ad565b9050919050565b6110e8816110cd565b82525050565b600060208201905061110360008301846110df565b92915050565b6000604051905090565b600080fd5b600080fd5b611126816110cd565b811461113157600080fd5b50565b6000813590506111438161111d565b92915050565b60006020828403121561115f5761115e611113565b5b600061116d84828501611134565b91505092915050565b6000819050919050565b61118981611176565b811461119457600080fd5b50565b6000813590506111a681611180565b92915050565b6000602082840312156111c2576111c1611113565b5b60006111d084828501611197565b91505092915050565b600080fd5b600080fd5b6000601f19601f8301169050919050565b7f4e487b7100000000000000000000000000000000000000000000000000000000600052604160045260246000fd5b61122c826111e3565b810181811067ffffffffffffffff8211171561124b5761124a6111f4565b5b80604052505050565b600061125e611109565b905061126a8282611223565b919050565b600067ffffffffffffffff82111561128a576112896111f4565b5b611293826111e3565b9050602081019050919050565b82818337600083830152505050565b60006112c26112bd8461126f565b611254565b9050828152602081018484840111156112de576112dd6111de565b5b6112e98482856112a0565b509392505050565b600082601f830112611306576113056111d9565b5b81356113168482602086016112af565b91505092915050565b60008060006060848603121561133857611337611113565b5b600084013567ffffffffffffffff81111561135657611355611118565b5b611362868287016112f1565b935050602061137386828701611197565b925050604061138486828701611197565b9150509250925092565b600082825260208201905092915050565b7f4f776e61626c653a2063616c6c6572206973206e6f7420746865206f776e6572600082015250565b60006113d560208361138e565b91506113e08261139f565b602082019050919050565b60006020820190508181036000830152611404816113c8565b9050919050565b61141481611176565b82525050565b600060208201905061142f600083018461140b565b92915050565b60008151905061144481611180565b92915050565b6000602082840312156114605761145f611113565b5b600061146e84828501611435565b91505092915050565b7f43616e2774207069636b2074682077696e6e6572207965742100000000000000600082015250565b60006114ad60198361138e565b91506114b882611477565b602082019050919050565b600060208201905081810360008301526114dc816114a0565b9050919050565b600067ffffffffffffffff8211156114fe576114fd6111f4565b5b602082029050602081019050919050565b600080fd5b6000815190506115238161111d565b92915050565b600061153c611537846114e3565b611254565b9050808382526020820190506020840283018581111561155f5761155e61150f565b5b835b8181101561158857806115748882611514565b845260208401935050602081019050611561565b5050509392505050565b600082601f8301126115a7576115a66111d9565b5b81516115b7848260208601611529565b91505092915050565b6000602082840312156115d6576115d5611113565b5b600082015167ffffffffffffffff8111156115f4576115f3611118565b5b61160084828501611592565b91505092915050565b7f4e6f7420656e6f756768206164647265737320746f207069636b20746865207760008201527f696e6e6572210000000000000000000000000000000000000000000000000000602082015250565b600061166560268361138e565b915061167082611609565b604082019050919050565b6000602082019050818103600083015261169481611658565b9050919050565b7f4e487b7100000000000000000000000000000000000000000000000000000000600052601260045260246000fd5b60006116d582611176565b91506116e083611176565b9250826116f0576116ef61169b565b5b828206905092915050565b7f4e487b7100000000000000000000000000000000000000000000000000000000600052603260045260246000fd5b600060408201905061173f600083018561140b565b61174c60208301846110df565b9392505050565b7f4c6f747465727920697320636c6f736564210000000000000000000000000000600082015250565b600061178960128361138e565b915061179482611753565b602082019050919050565b600060208201905081810360008301526117b88161177c565b9050919050565b7f41646d696e2043616e6e6f7420506c6163652041204269642100000000000000600082015250565b60006117f560198361138e565b9150611800826117bf565b602082019050919050565b60006020820190508181036000830152611824816117e8565b9050919050565b7f4e6f204e65636573736172792046756e647320546f205061727465636970617460008201527f6521000000000000000000000000000000000000000000000000000000000000602082015250565b600061188760228361138e565b91506118928261182b565b604082019050919050565b600060208201905081810360008301526118b68161187a565b9050919050565b60006060820190506118d260008301866110df565b6118df60208301856110df565b6118ec604083018461140b565b949350505050565b60008115159050919050565b611909816118f4565b811461191457600080fd5b50565b60008151905061192681611900565b92915050565b60006020828403121561194257611941611113565b5b600061195084828501611917565b91505092915050565b600060408201905061196e600083018561140b565b61197b602083018461140b565b9392505050565b600060608201905061199760008301866110df565b6119a4602083018561140b565b6119b1604083018461140b565b949350505050565b7f4f776e61626c653a206e6577206f776e657220697320746865207a65726f206160008201527f6464726573730000000000000000000000000000000000000000000000000000602082015250565b6000611a1560268361138e565b9150611a20826119b9565b604082019050919050565b60006020820190508181036000830152611a4481611a08565b9050919050565b7f43616e6e6f74207365742061206461746520696e207468652050617374210000600082015250565b6000611a81601e8361138e565b9150611a8c82611a4b565b602082019050919050565b60006020820190508181036000830152611ab081611a74565b9050919050565b600081519050919050565b60005b83811015611ae0578082015181840152602081019050611ac5565b83811115611aef576000848401525b50505050565b6000611b0082611ab7565b611b0a818561138e565b9350611b1a818560208601611ac2565b611b23816111e3565b840191505092915050565b60006060820190508181036000830152611b488186611af5565b9050611b57602083018561140b565b611b64604083018461140b565b949350505050565b6000819050919050565b611b87611b8282611176565b611b6c565b82525050565b6000611b998286611b76565b602082019150611ba98285611b76565b602082019150611bb98284611b76565b60208201915081905094935050505056fea264697066735822122009061a3437d9abfc7d67ef16f5483d5bdba017710c3796149bca2de7789c648c64736f6c634300080d0033",
  "immutableReferences": {},
  "source": "//SPDX-License-Identifier: MIT\r\n\r\nimport \"@openzeppelin/contracts/access/Ownable.sol\";\r\nimport \"./LotteriaToken.sol\";\r\nimport \"./LotteriaInfo.sol\";\r\n\r\npragma solidity ^0.8.7;\r\n\r\ncontract Lotteria is Ownable{\r\n\r\n    LotteriaInfo private lotteryInfo;\r\n    LotteriaToken private lotteryToken;\r\n\r\n    event BidCorrect(address bidder, uint tokenId, uint defaultBid);\r\n\r\n    constructor(){\r\n\r\n    }\r\n\r\n\r\n    function initLotteryTokenContract(address _lotteryTokenContract)public onlyOwner{\r\n        lotteryToken = LotteriaToken(_lotteryTokenContract);\r\n    }\r\n\r\n    function getLotteryTokenContract()public view returns(address){\r\n        return address(lotteryToken);\r\n    }\r\n\r\n\r\n    function initLotteryInfoContract(address _lotteryInfoContract)public onlyOwner{\r\n        lotteryInfo = LotteriaInfo(_lotteryInfoContract);\r\n    }\r\n\r\n    function getLotteryInfoContract()public view returns(address){\r\n        return address(lotteryInfo);\r\n    }\r\n\r\n\r\n    function setItemToWin(\r\n        string memory _name,\r\n        uint _defaultBid,\r\n        uint _endingTimeLottery\r\n        )public onlyOwner{\r\n            require(_endingTimeLottery > block.timestamp, \"Cannot set a date in the Past!\");\r\n            lotteryInfo.setItemToWin(_name, _defaultBid, _endingTimeLottery);\r\n    }\r\n\r\n\r\n\r\n    function placeABid(uint _tokenIds)external{\r\n        require(block.timestamp < lotteryInfo.getEndingTimeLottery(_tokenIds), \"Lottery is closed!\");\r\n        require(msg.sender != owner(), \"Admin Cannot Place A Bid!\");\r\n        uint requiredTokenAmounts = lotteryInfo.getDefaultStartingPrice(_tokenIds);\r\n        require(lotteryToken.balanceOf(msg.sender) >= requiredTokenAmounts, \"No Necessary Funds To Partecipate!\");\r\n        lotteryToken.transferFrom(msg.sender, owner(), requiredTokenAmounts);\r\n        lotteryInfo.updateBid(_tokenIds, requiredTokenAmounts);\r\n        lotteryInfo.updateAddress(_tokenIds, msg.sender);\r\n        emit BidCorrect(msg.sender, _tokenIds, requiredTokenAmounts);\r\n    }\r\n\r\n    function random(uint _tokenIds) internal view returns(uint){\r\n        uint bidderAddressCount = lotteryInfo.getBidderAddress(_tokenIds).length;\r\n        return uint(keccak256(abi.encodePacked(block.difficulty, block.timestamp, bidderAddressCount)));\r\n    }\r\n\r\n\r\n    function pickTheWinner(uint _tokenIds)public onlyOwner{\r\n        require(block.timestamp > lotteryInfo.getEndingTimeLottery(_tokenIds), \"Can't pick th winner yet!\");\r\n        uint bidderAddressCount = lotteryInfo.getBidderAddress(_tokenIds).length;\r\n        address[]memory bidderAddress = lotteryInfo.getBidderAddress(_tokenIds);\r\n        require(bidderAddressCount > 3, \"Not enough address to pick the winner!\");\r\n        address winner = bidderAddress[random(_tokenIds) % bidderAddressCount];\r\n        lotteryInfo.setWinnerLottery(_tokenIds, winner);\r\n    }\r\n}\r\n",
  "sourcePath": "C:\\Users\\Danilo Gigli\\Desktop\\Solidity\\myProjects\\MagicLottery\\contracts\\Lotteria.sol",
  "compiler": {
    "name": "solc",
    "version": "0.8.13+commit.abaa5c0e.Emscripten.clang"
  },
  "schemaVersion": "3.4.6",
  "updatedAt": "2022-04-21T16:54:56.756Z",
  "devdoc": {
    "kind": "dev",
    "methods": {
      "owner()": {
        "details": "Returns the address of the current owner."
      },
      "renounceOwnership()": {
        "details": "Leaves the contract without owner. It will not be possible to call `onlyOwner` functions anymore. Can only be called by the current owner. NOTE: Renouncing ownership will leave the contract without an owner, thereby removing any functionality that is only available to the owner."
      },
      "transferOwnership(address)": {
        "details": "Transfers ownership of the contract to a new account (`newOwner`). Can only be called by the current owner."
      }
    },
    "version": 1
  },
  "userdoc": {
    "kind": "user",
    "methods": {},
    "version": 1
  }
}