{
  "contractName": "LotteriaInfo",
  "abi": [
    {
      "inputs": [],
      "stateMutability": "nonpayable",
      "type": "constructor"
    },
    {
      "anonymous": false,
      "inputs": [
        {
          "indexed": false,
          "internalType": "uint256",
          "name": "tokenId",
          "type": "uint256"
        },
        {
          "indexed": false,
          "internalType": "string",
          "name": "name",
          "type": "string"
        },
        {
          "indexed": false,
          "internalType": "uint256",
          "name": "amountBettedOn",
          "type": "uint256"
        },
        {
          "indexed": false,
          "internalType": "uint256",
          "name": "defaultBid",
          "type": "uint256"
        }
      ],
      "name": "ItemCreated",
      "type": "event"
    },
    {
      "anonymous": false,
      "inputs": [
        {
          "indexed": true,
          "internalType": "address",
          "name": "previousOwner",
          "type": "address"
        },
        {
          "indexed": true,
          "internalType": "address",
          "name": "newOwner",
          "type": "address"
        }
      ],
      "name": "OwnershipTransferred",
      "type": "event"
    },
    {
      "inputs": [],
      "name": "owner",
      "outputs": [
        {
          "internalType": "address",
          "name": "",
          "type": "address"
        }
      ],
      "stateMutability": "view",
      "type": "function"
    },
    {
      "inputs": [],
      "name": "renounceOwnership",
      "outputs": [],
      "stateMutability": "nonpayable",
      "type": "function"
    },
    {
      "inputs": [
        {
          "internalType": "address",
          "name": "newOwner",
          "type": "address"
        }
      ],
      "name": "transferOwnership",
      "outputs": [],
      "stateMutability": "nonpayable",
      "type": "function"
    },
    {
      "inputs": [
        {
          "internalType": "address",
          "name": "_lotteryContract",
          "type": "address"
        }
      ],
      "name": "initLotteryContract",
      "outputs": [],
      "stateMutability": "nonpayable",
      "type": "function"
    },
    {
      "inputs": [
        {
          "internalType": "address",
          "name": "_lotteryTokenContract",
          "type": "address"
        }
      ],
      "name": "initLotteryTokenContract",
      "outputs": [],
      "stateMutability": "nonpayable",
      "type": "function"
    },
    {
      "inputs": [
        {
          "internalType": "uint256",
          "name": "itemIndex",
          "type": "uint256"
        },
        {
          "internalType": "address",
          "name": "winner",
          "type": "address"
        }
      ],
      "name": "setWinnerLottery",
      "outputs": [],
      "stateMutability": "nonpayable",
      "type": "function"
    },
    {
      "inputs": [
        {
          "internalType": "uint256",
          "name": "itemIndex",
          "type": "uint256"
        }
      ],
      "name": "getWinner",
      "outputs": [
        {
          "internalType": "address",
          "name": "",
          "type": "address"
        }
      ],
      "stateMutability": "view",
      "type": "function"
    },
    {
      "inputs": [
        {
          "internalType": "address",
          "name": "addToCheck",
          "type": "address"
        }
      ],
      "name": "registrationSuccesfully",
      "outputs": [],
      "stateMutability": "nonpayable",
      "type": "function"
    },
    {
      "inputs": [
        {
          "internalType": "address",
          "name": "addToCheck",
          "type": "address"
        }
      ],
      "name": "registrationStatus",
      "outputs": [
        {
          "internalType": "bool",
          "name": "",
          "type": "bool"
        }
      ],
      "stateMutability": "view",
      "type": "function"
    },
    {
      "inputs": [
        {
          "internalType": "string",
          "name": "_name",
          "type": "string"
        },
        {
          "internalType": "uint256",
          "name": "_defaultBid",
          "type": "uint256"
        },
        {
          "internalType": "uint256",
          "name": "_endingTimeLottery",
          "type": "uint256"
        }
      ],
      "name": "setItemToWin",
      "outputs": [],
      "stateMutability": "nonpayable",
      "type": "function"
    },
    {
      "inputs": [
        {
          "internalType": "uint256",
          "name": "_tokenIds",
          "type": "uint256"
        },
        {
          "internalType": "uint256",
          "name": "_amount",
          "type": "uint256"
        }
      ],
      "name": "updateBid",
      "outputs": [],
      "stateMutability": "nonpayable",
      "type": "function"
    },
    {
      "inputs": [
        {
          "internalType": "uint256",
          "name": "_tokenIds",
          "type": "uint256"
        },
        {
          "internalType": "address",
          "name": "_bidder",
          "type": "address"
        }
      ],
      "name": "updateAddress",
      "outputs": [],
      "stateMutability": "nonpayable",
      "type": "function"
    },
    {
      "inputs": [
        {
          "internalType": "uint256",
          "name": "_tokenIds",
          "type": "uint256"
        }
      ],
      "name": "getItemName",
      "outputs": [
        {
          "internalType": "string",
          "name": "",
          "type": "string"
        }
      ],
      "stateMutability": "view",
      "type": "function"
    },
    {
      "inputs": [
        {
          "internalType": "uint256",
          "name": "_tokenIds",
          "type": "uint256"
        }
      ],
      "name": "getBidderAddress",
      "outputs": [
        {
          "internalType": "address[]",
          "name": "",
          "type": "address[]"
        }
      ],
      "stateMutability": "view",
      "type": "function"
    },
    {
      "inputs": [
        {
          "internalType": "uint256",
          "name": "_tokenIds",
          "type": "uint256"
        }
      ],
      "name": "getDefaultStartingPrice",
      "outputs": [
        {
          "internalType": "uint256",
          "name": "",
          "type": "uint256"
        }
      ],
      "stateMutability": "view",
      "type": "function"
    },
    {
      "inputs": [
        {
          "internalType": "uint256",
          "name": "_tokenIds",
          "type": "uint256"
        }
      ],
      "name": "getEndingTimeLottery",
      "outputs": [
        {
          "internalType": "uint256",
          "name": "",
          "type": "uint256"
        }
      ],
      "stateMutability": "view",
      "type": "function"
    },
    {
      "inputs": [
        {
          "internalType": "uint256",
          "name": "_tokenIds",
          "type": "uint256"
        }
      ],
      "name": "getBidAmount",
      "outputs": [
        {
          "internalType": "uint256",
          "name": "",
          "type": "uint256"
        }
      ],
      "stateMutability": "view",
      "type": "function"
    }
  ],
  "bytecode": "0x608060405234801561001057600080fd5b5061002d61002261003260201b60201c565b61003a60201b60201c565b6100fe565b600033905090565b60008060009054906101000a900473ffffffffffffffffffffffffffffffffffffffff169050816000806101000a81548173ffffffffffffffffffffffffffffffffffffffff021916908373ffffffffffffffffffffffffffffffffffffffff1602179055508173ffffffffffffffffffffffffffffffffffffffff168173ffffffffffffffffffffffffffffffffffffffff167f8be0079c531659141344cd1fd0a4f28419497f9722a3daafe3b4186f6b6457e060405160405180910390a35050565b6115bf8061010d6000396000f3fe608060405234801561001057600080fd5b506004361061010b5760003560e01c806376b8905c116100a2578063d9561a9111610071578063d9561a91146102b4578063dd0111e9146102e4578063f2fde38b14610300578063f5c0a1431461031c578063fc48eded146103385761010b565b806376b8905c1461021a5780637792cb14146102365780638da5cb5b1461026657806390546d43146102845761010b565b8063602e03b4116100de578063602e03b4146101a857806360365e0c146101d85780636b7e2d86146101f4578063715018a6146102105761010b565b80632434b593146101105780632ab29df71461012c5780634129b2c9146101485780635fa3828014610178575b600080fd5b61012a60048036038101906101259190610e3c565b610368565b005b61014660048036038101906101419190610e9f565b6103d1565b005b610162600480360381019061015d9190610edf565b61045a565b60405161016f9190610f1b565b60405180910390f35b610192600480360381019061018d9190610edf565b610497565b60405161019f9190610ff4565b60405180910390f35b6101c260048036038101906101bd9190610e3c565b61053b565b6040516101cf9190611031565b60405180910390f35b6101f260048036038101906101ed919061104c565b610591565b005b61020e60048036038101906102099190610e3c565b6105d0565b005b610218610690565b005b610234600480360381019061022f9190610e3c565b610718565b005b610250600480360381019061024b9190610edf565b6107d8565b60405161025d919061109b565b60405180910390f35b61026e6107f8565b60405161027b9190610f1b565b60405180910390f35b61029e60048036038101906102999190610edf565b610821565b6040516102ab919061109b565b60405180910390f35b6102ce60048036038101906102c99190610edf565b610841565b6040516102db919061114f565b60405180910390f35b6102fe60048036038101906102f99190610e9f565b6108e9565b005b61031a60048036038101906103159190610e3c565b61094d565b005b610336600480360381019061033191906112a6565b610a44565b005b610352600480360381019061034d9190610edf565b610b8d565b60405161035f919061109b565b60405180910390f35b600360009054906101000a9050506001600560008373ffffffffffffffffffffffffffffffffffffffff1673ffffffffffffffffffffffffffffffffffffffff16815260200190815260200160002060006101000a81548160ff02191690831515021790555050565b600260009054906101000a90505060046000838152602001908152602001600020600301819080600181540180825580915050600190039060005260206000200160009091909190916101000a81548173ffffffffffffffffffffffffffffffffffffffff021916908373ffffffffffffffffffffffffffffffffffffffff1602179055505050565b60006006600083815260200190815260200160002060009054906101000a900473ffffffffffffffffffffffffffffffffffffffff169050919050565b60606004600083815260200190815260200160002060030180548060200260200160405190810160405280929190818152602001828054801561052f57602002820191906000526020600020905b8160009054906101000a900473ffffffffffffffffffffffffffffffffffffffff1673ffffffffffffffffffffffffffffffffffffffff16815260200190600101908083116104e5575b50505050509050919050565b6000600560008373ffffffffffffffffffffffffffffffffffffffff1673ffffffffffffffffffffffffffffffffffffffff16815260200190815260200160002060009054906101000a900460ff169050919050565b600260009054906101000a905050806004600084815260200190815260200160002060010160008282546105c59190611344565b925050819055505050565b6105d8610bad565b73ffffffffffffffffffffffffffffffffffffffff166105f66107f8565b73ffffffffffffffffffffffffffffffffffffffff161461064c576040517f08c379a0000000000000000000000000000000000000000000000000000000008152600401610643906113e6565b60405180910390fd5b80600260006101000a81548173ffffffffffffffffffffffffffffffffffffffff021916908373ffffffffffffffffffffffffffffffffffffffff16021790555050565b610698610bad565b73ffffffffffffffffffffffffffffffffffffffff166106b66107f8565b73ffffffffffffffffffffffffffffffffffffffff161461070c576040517f08c379a0000000000000000000000000000000000000000000000000000000008152600401610703906113e6565b60405180910390fd5b6107166000610bb5565b565b610720610bad565b73ffffffffffffffffffffffffffffffffffffffff1661073e6107f8565b73ffffffffffffffffffffffffffffffffffffffff1614610794576040517f08c379a000000000000000000000000000000000000000000000000000000000815260040161078b906113e6565b60405180910390fd5b80600360006101000a81548173ffffffffffffffffffffffffffffffffffffffff021916908373ffffffffffffffffffffffffffffffffffffffff16021790555050565b600060046000838152602001908152602001600020600401549050919050565b60008060009054906101000a900473ffffffffffffffffffffffffffffffffffffffff16905090565b600060046000838152602001908152602001600020600201549050919050565b606060046000838152602001908152602001600020600001805461086490611435565b80601f016020809104026020016040519081016040528092919081815260200182805461089090611435565b80156108dd5780601f106108b2576101008083540402835291602001916108dd565b820191906000526020600020905b8154815290600101906020018083116108c057829003601f168201915b50505050509050919050565b600260009054906101000a905050806006600084815260200190815260200160002060006101000a81548173ffffffffffffffffffffffffffffffffffffffff021916908373ffffffffffffffffffffffffffffffffffffffff1602179055505050565b610955610bad565b73ffffffffffffffffffffffffffffffffffffffff166109736107f8565b73ffffffffffffffffffffffffffffffffffffffff16146109c9576040517f08c379a00000000000000000000000000000000000000000000000000000000081526004016109c0906113e6565b60405180910390fd5b600073ffffffffffffffffffffffffffffffffffffffff168173ffffffffffffffffffffffffffffffffffffffff1603610a38576040517f08c379a0000000000000000000000000000000000000000000000000000000008152600401610a2f906114d8565b60405180910390fd5b610a4181610bb5565b50565b600260009054906101000a905050610a5c6001610c79565b6000610a686001610c8f565b90506040518060a0016040528085815260200160008152602001848152602001600067ffffffffffffffff811115610aa357610aa261117b565b5b604051908082528060200260200182016040528015610ad15781602001602082028036833780820191505090505b50815260200183815250600460008381526020019081526020016000206000820151816000019080519060200190610b0a929190610c9d565b5060208201518160010155604082015181600201556060820151816003019080519060200190610b3b929190610d23565b50608082015181600401559050507ffed0f31785f93738e65b9d4e2da5f8f07faf314599d960928cf02d2fcadd36418185600086604051610b7f949392919061153d565b60405180910390a150505050565b600060046000838152602001908152602001600020600101549050919050565b600033905090565b60008060009054906101000a900473ffffffffffffffffffffffffffffffffffffffff169050816000806101000a81548173ffffffffffffffffffffffffffffffffffffffff021916908373ffffffffffffffffffffffffffffffffffffffff1602179055508173ffffffffffffffffffffffffffffffffffffffff168173ffffffffffffffffffffffffffffffffffffffff167f8be0079c531659141344cd1fd0a4f28419497f9722a3daafe3b4186f6b6457e060405160405180910390a35050565b6001816000016000828254019250508190555050565b600081600001549050919050565b828054610ca990611435565b90600052602060002090601f016020900481019282610ccb5760008555610d12565b82601f10610ce457805160ff1916838001178555610d12565b82800160010185558215610d12579182015b82811115610d11578251825591602001919060010190610cf6565b5b509050610d1f9190610dad565b5090565b828054828255906000526020600020908101928215610d9c579160200282015b82811115610d9b5782518260006101000a81548173ffffffffffffffffffffffffffffffffffffffff021916908373ffffffffffffffffffffffffffffffffffffffff16021790555091602001919060010190610d43565b5b509050610da99190610dad565b5090565b5b80821115610dc6576000816000905550600101610dae565b5090565b6000604051905090565b600080fd5b600080fd5b600073ffffffffffffffffffffffffffffffffffffffff82169050919050565b6000610e0982610dde565b9050919050565b610e1981610dfe565b8114610e2457600080fd5b50565b600081359050610e3681610e10565b92915050565b600060208284031215610e5257610e51610dd4565b5b6000610e6084828501610e27565b91505092915050565b6000819050919050565b610e7c81610e69565b8114610e8757600080fd5b50565b600081359050610e9981610e73565b92915050565b60008060408385031215610eb657610eb5610dd4565b5b6000610ec485828601610e8a565b9250506020610ed585828601610e27565b9150509250929050565b600060208284031215610ef557610ef4610dd4565b5b6000610f0384828501610e8a565b91505092915050565b610f1581610dfe565b82525050565b6000602082019050610f306000830184610f0c565b92915050565b600081519050919050565b600082825260208201905092915050565b6000819050602082019050919050565b610f6b81610dfe565b82525050565b6000610f7d8383610f62565b60208301905092915050565b6000602082019050919050565b6000610fa182610f36565b610fab8185610f41565b9350610fb683610f52565b8060005b83811015610fe7578151610fce8882610f71565b9750610fd983610f89565b925050600181019050610fba565b5085935050505092915050565b6000602082019050818103600083015261100e8184610f96565b905092915050565b60008115159050919050565b61102b81611016565b82525050565b60006020820190506110466000830184611022565b92915050565b6000806040838503121561106357611062610dd4565b5b600061107185828601610e8a565b925050602061108285828601610e8a565b9150509250929050565b61109581610e69565b82525050565b60006020820190506110b0600083018461108c565b92915050565b600081519050919050565b600082825260208201905092915050565b60005b838110156110f05780820151818401526020810190506110d5565b838111156110ff576000848401525b50505050565b6000601f19601f8301169050919050565b6000611121826110b6565b61112b81856110c1565b935061113b8185602086016110d2565b61114481611105565b840191505092915050565b600060208201905081810360008301526111698184611116565b905092915050565b600080fd5b600080fd5b7f4e487b7100000000000000000000000000000000000000000000000000000000600052604160045260246000fd5b6111b382611105565b810181811067ffffffffffffffff821117156111d2576111d161117b565b5b80604052505050565b60006111e5610dca565b90506111f182826111aa565b919050565b600067ffffffffffffffff8211156112115761121061117b565b5b61121a82611105565b9050602081019050919050565b82818337600083830152505050565b6000611249611244846111f6565b6111db565b90508281526020810184848401111561126557611264611176565b5b611270848285611227565b509392505050565b600082601f83011261128d5761128c611171565b5b813561129d848260208601611236565b91505092915050565b6000806000606084860312156112bf576112be610dd4565b5b600084013567ffffffffffffffff8111156112dd576112dc610dd9565b5b6112e986828701611278565b93505060206112fa86828701610e8a565b925050604061130b86828701610e8a565b9150509250925092565b7f4e487b7100000000000000000000000000000000000000000000000000000000600052601160045260246000fd5b600061134f82610e69565b915061135a83610e69565b9250827fffffffffffffffffffffffffffffffffffffffffffffffffffffffffffffffff0382111561138f5761138e611315565b5b828201905092915050565b7f4f776e61626c653a2063616c6c6572206973206e6f7420746865206f776e6572600082015250565b60006113d06020836110c1565b91506113db8261139a565b602082019050919050565b600060208201905081810360008301526113ff816113c3565b9050919050565b7f4e487b7100000000000000000000000000000000000000000000000000000000600052602260045260246000fd5b6000600282049050600182168061144d57607f821691505b6020821081036114605761145f611406565b5b50919050565b7f4f776e61626c653a206e6577206f776e657220697320746865207a65726f206160008201527f6464726573730000000000000000000000000000000000000000000000000000602082015250565b60006114c26026836110c1565b91506114cd82611466565b604082019050919050565b600060208201905081810360008301526114f1816114b5565b9050919050565b6000819050919050565b6000819050919050565b600061152761152261151d846114f8565b611502565b610e69565b9050919050565b6115378161150c565b82525050565b6000608082019050611552600083018761108c565b81810360208301526115648186611116565b9050611573604083018561152e565b611580606083018461108c565b9594505050505056fea2646970667358221220d97e5c6b32b9b4f8f4e709f869f7a04ea4c0cd70cdd5ea78631add1f1ecb830564736f6c634300080d0033",
  "immutableReferences": {},
  "source": "//SPDX-License-Identifier: MIT\r\n\r\nimport \"@openzeppelin/contracts/utils/Counters.sol\";\r\nimport \"@openzeppelin/contracts/access/Ownable.sol\";\r\nimport \"./LotteriaToken.sol\";\r\nimport \"./Lotteria.sol\";\r\n\r\npragma solidity ^0.8.7;\r\n\r\ncontract LotteriaInfo is Ownable{\r\n    using Counters for Counters.Counter;\r\n    Counters.Counter private _tokenId;\r\n\r\n    Lotteria  lottery;\r\n    LotteriaToken private lotteryToken;\r\n\r\n    struct itemToWin{\r\n        string name;\r\n        uint amountBettedOn;\r\n        uint defaultTokenBase;\r\n        address[] BidderAddress;\r\n        uint endingTimeLottery;\r\n    }\r\n\r\n    event ItemCreated(uint tokenId, string name, uint amountBettedOn, uint defaultBid);\r\n\r\n\r\n    mapping(uint=>itemToWin) private itemDescription;\r\n\r\n    mapping(address=>bool)private SuccessRegistration;\r\n    mapping(uint=>address)private ItemWinner;\r\n\r\n\r\n    modifier onlyLotteria(){\r\n        msg.sender == address(lottery);\r\n        _;\r\n    }\r\n\r\n    modifier onlyLotteriaToken(){\r\n        msg.sender == address(lotteryToken);\r\n        _;\r\n    }\r\n\r\n\r\n    constructor(){\r\n\r\n    }\r\n\r\n\r\n    function initLotteryContract(address _lotteryContract)public onlyOwner{\r\n        lottery = Lotteria(_lotteryContract);\r\n    }\r\n\r\n\r\n    function initLotteryTokenContract(address _lotteryTokenContract)public onlyOwner{\r\n        lotteryToken = LotteriaToken(_lotteryTokenContract);\r\n    }\r\n\r\n\r\n    function setWinnerLottery(uint itemIndex, address winner)external onlyLotteria{\r\n        ItemWinner[itemIndex] = winner;\r\n    }\r\n\r\n\r\n    function getWinner(uint itemIndex)public view returns(address){\r\n        return ItemWinner[itemIndex];\r\n    }\r\n\r\n\r\n    function registrationSuccesfully(address addToCheck)external onlyLotteriaToken{\r\n        SuccessRegistration[addToCheck] = true;\r\n    }\r\n\r\n\r\n    function registrationStatus(address addToCheck)public view returns(bool){\r\n        return SuccessRegistration[addToCheck];\r\n    }\r\n\r\n\r\n    function setItemToWin(\r\n        string memory _name,\r\n        uint _defaultBid,\r\n        uint _endingTimeLottery\r\n        )public onlyLotteria{\r\n            _tokenId.increment();\r\n            uint newId = _tokenId.current();\r\n            itemDescription[newId] = itemToWin(\r\n                _name,\r\n                0,\r\n                _defaultBid,\r\n                new address[](0),\r\n                _endingTimeLottery\r\n            );\r\n        emit ItemCreated(newId, _name, 0, _defaultBid);\r\n    }\r\n\r\n\r\n    function updateBid(uint _tokenIds, uint _amount)external onlyLotteria{\r\n        itemDescription[_tokenIds].amountBettedOn += _amount;\r\n    }\r\n\r\n    function updateAddress(uint _tokenIds, address _bidder)external onlyLotteria{\r\n        itemDescription[_tokenIds].BidderAddress.push(_bidder);\r\n    }\r\n\r\n    function getItemName(uint _tokenIds)public view returns(string memory){\r\n        return itemDescription[_tokenIds].name;\r\n    }\r\n\r\n    function getBidderAddress(uint _tokenIds)public view returns(address[]memory){\r\n        return itemDescription[_tokenIds].BidderAddress;\r\n    }\r\n\r\n    function getDefaultStartingPrice(uint _tokenIds)public view returns(uint){\r\n        return itemDescription[_tokenIds].defaultTokenBase;\r\n    }\r\n\r\n    function getEndingTimeLottery(uint _tokenIds)public view returns(uint){\r\n        return itemDescription[_tokenIds].endingTimeLottery;\r\n    }\r\n\r\n    function getBidAmount(uint _tokenIds)public view returns(uint){\r\n        return itemDescription[_tokenIds].amountBettedOn;\r\n    }\r\n}\r\n\r\n",
  "sourcePath": "C:\\Users\\Danilo Gigli\\Desktop\\Solidity\\myProjects\\MagicLottery\\contracts\\LotteriaInfo.sol",
  "compiler": {
    "name": "solc",
    "version": "0.8.13+commit.abaa5c0e.Emscripten.clang"
  },
  "schemaVersion": "3.4.6",
  "updatedAt": "2022-04-21T16:54:56.798Z",
  "devdoc": {
    "kind": "dev",
    "methods": {
      "owner()": {
        "details": "Returns the address of the current owner."
      },
      "renounceOwnership()": {
        "details": "Leaves the contract without owner. It will not be possible to call `onlyOwner` functions anymore. Can only be called by the current owner. NOTE: Renouncing ownership will leave the contract without an owner, thereby removing any functionality that is only available to the owner."
      },
      "transferOwnership(address)": {
        "details": "Transfers ownership of the contract to a new account (`newOwner`). Can only be called by the current owner."
      }
    },
    "version": 1
  },
  "userdoc": {
    "kind": "user",
    "methods": {},
    "version": 1
  }
}