{
  "contractName": "LotteriaToken",
  "abi": [
    {
      "inputs": [
        {
          "internalType": "string",
          "name": "name",
          "type": "string"
        },
        {
          "internalType": "string",
          "name": "symbol",
          "type": "string"
        },
        {
          "internalType": "uint256",
          "name": "totalSupply",
          "type": "uint256"
        }
      ],
      "stateMutability": "nonpayable",
      "type": "constructor"
    },
    {
      "anonymous": false,
      "inputs": [
        {
          "indexed": true,
          "internalType": "address",
          "name": "owner",
          "type": "address"
        },
        {
          "indexed": true,
          "internalType": "address",
          "name": "spender",
          "type": "address"
        },
        {
          "indexed": false,
          "internalType": "uint256",
          "name": "value",
          "type": "uint256"
        }
      ],
      "name": "Approval",
      "type": "event"
    },
    {
      "anonymous": false,
      "inputs": [
        {
          "indexed": true,
          "internalType": "address",
          "name": "previousOwner",
          "type": "address"
        },
        {
          "indexed": true,
          "internalType": "address",
          "name": "newOwner",
          "type": "address"
        }
      ],
      "name": "OwnershipTransferred",
      "type": "event"
    },
    {
      "anonymous": false,
      "inputs": [
        {
          "indexed": true,
          "internalType": "address",
          "name": "from",
          "type": "address"
        },
        {
          "indexed": true,
          "internalType": "address",
          "name": "to",
          "type": "address"
        },
        {
          "indexed": false,
          "internalType": "uint256",
          "name": "value",
          "type": "uint256"
        }
      ],
      "name": "Transfer",
      "type": "event"
    },
    {
      "inputs": [
        {
          "internalType": "address",
          "name": "owner",
          "type": "address"
        },
        {
          "internalType": "address",
          "name": "spender",
          "type": "address"
        }
      ],
      "name": "allowance",
      "outputs": [
        {
          "internalType": "uint256",
          "name": "",
          "type": "uint256"
        }
      ],
      "stateMutability": "view",
      "type": "function"
    },
    {
      "inputs": [
        {
          "internalType": "address",
          "name": "spender",
          "type": "address"
        },
        {
          "internalType": "uint256",
          "name": "amount",
          "type": "uint256"
        }
      ],
      "name": "approve",
      "outputs": [
        {
          "internalType": "bool",
          "name": "",
          "type": "bool"
        }
      ],
      "stateMutability": "nonpayable",
      "type": "function"
    },
    {
      "inputs": [],
      "name": "decimals",
      "outputs": [
        {
          "internalType": "uint8",
          "name": "",
          "type": "uint8"
        }
      ],
      "stateMutability": "view",
      "type": "function"
    },
    {
      "inputs": [
        {
          "internalType": "address",
          "name": "spender",
          "type": "address"
        },
        {
          "internalType": "uint256",
          "name": "subtractedValue",
          "type": "uint256"
        }
      ],
      "name": "decreaseAllowance",
      "outputs": [
        {
          "internalType": "bool",
          "name": "",
          "type": "bool"
        }
      ],
      "stateMutability": "nonpayable",
      "type": "function"
    },
    {
      "inputs": [
        {
          "internalType": "address",
          "name": "spender",
          "type": "address"
        },
        {
          "internalType": "uint256",
          "name": "addedValue",
          "type": "uint256"
        }
      ],
      "name": "increaseAllowance",
      "outputs": [
        {
          "internalType": "bool",
          "name": "",
          "type": "bool"
        }
      ],
      "stateMutability": "nonpayable",
      "type": "function"
    },
    {
      "inputs": [],
      "name": "name",
      "outputs": [
        {
          "internalType": "string",
          "name": "",
          "type": "string"
        }
      ],
      "stateMutability": "view",
      "type": "function"
    },
    {
      "inputs": [],
      "name": "owner",
      "outputs": [
        {
          "internalType": "address",
          "name": "",
          "type": "address"
        }
      ],
      "stateMutability": "view",
      "type": "function"
    },
    {
      "inputs": [],
      "name": "renounceOwnership",
      "outputs": [],
      "stateMutability": "nonpayable",
      "type": "function"
    },
    {
      "inputs": [],
      "name": "symbol",
      "outputs": [
        {
          "internalType": "string",
          "name": "",
          "type": "string"
        }
      ],
      "stateMutability": "view",
      "type": "function"
    },
    {
      "inputs": [],
      "name": "totalSupply",
      "outputs": [
        {
          "internalType": "uint256",
          "name": "",
          "type": "uint256"
        }
      ],
      "stateMutability": "view",
      "type": "function"
    },
    {
      "inputs": [
        {
          "internalType": "address",
          "name": "to",
          "type": "address"
        },
        {
          "internalType": "uint256",
          "name": "amount",
          "type": "uint256"
        }
      ],
      "name": "transfer",
      "outputs": [
        {
          "internalType": "bool",
          "name": "",
          "type": "bool"
        }
      ],
      "stateMutability": "nonpayable",
      "type": "function"
    },
    {
      "inputs": [
        {
          "internalType": "address",
          "name": "from",
          "type": "address"
        },
        {
          "internalType": "address",
          "name": "to",
          "type": "address"
        },
        {
          "internalType": "uint256",
          "name": "amount",
          "type": "uint256"
        }
      ],
      "name": "transferFrom",
      "outputs": [
        {
          "internalType": "bool",
          "name": "",
          "type": "bool"
        }
      ],
      "stateMutability": "nonpayable",
      "type": "function"
    },
    {
      "inputs": [
        {
          "internalType": "address",
          "name": "newOwner",
          "type": "address"
        }
      ],
      "name": "transferOwnership",
      "outputs": [],
      "stateMutability": "nonpayable",
      "type": "function"
    },
    {
      "inputs": [
        {
          "internalType": "address",
          "name": "_lotteryContract",
          "type": "address"
        }
      ],
      "name": "initLotteryContract",
      "outputs": [],
      "stateMutability": "nonpayable",
      "type": "function"
    },
    {
      "inputs": [],
      "name": "getLotteryContract",
      "outputs": [
        {
          "internalType": "address",
          "name": "",
          "type": "address"
        }
      ],
      "stateMutability": "view",
      "type": "function"
    },
    {
      "inputs": [
        {
          "internalType": "address",
          "name": "_lotteryInfoContract",
          "type": "address"
        }
      ],
      "name": "initLotteryInfoContract",
      "outputs": [],
      "stateMutability": "nonpayable",
      "type": "function"
    },
    {
      "inputs": [],
      "name": "getLotteryInfoContract",
      "outputs": [
        {
          "internalType": "address",
          "name": "",
          "type": "address"
        }
      ],
      "stateMutability": "view",
      "type": "function"
    },
    {
      "inputs": [],
      "name": "withdraw",
      "outputs": [],
      "stateMutability": "nonpayable",
      "type": "function"
    },
    {
      "inputs": [
        {
          "internalType": "address",
          "name": "_to",
          "type": "address"
        },
        {
          "internalType": "uint256",
          "name": "_amount",
          "type": "uint256"
        }
      ],
      "name": "sendToken",
      "outputs": [],
      "stateMutability": "nonpayable",
      "type": "function"
    },
    {
      "inputs": [
        {
          "internalType": "address",
          "name": "addToCheck",
          "type": "address"
        }
      ],
      "name": "balanceOf",
      "outputs": [
        {
          "internalType": "uint256",
          "name": "",
          "type": "uint256"
        }
      ],
      "stateMutability": "view",
      "type": "function"
    }
  ],
  "bytecode": "0x608060405260056006553480156200001657600080fd5b50604051620029743803806200297483398181016040528101906200003c9190620005c8565b82826200005e62000052620000f160201b60201c565b620000f960201b60201c565b81600490805190602001906200007692919062000340565b5080600590805190602001906200008f92919062000340565b505050620000a43382620001bd60201b60201c565b80600760003373ffffffffffffffffffffffffffffffffffffffff1673ffffffffffffffffffffffffffffffffffffffff1681526020019081526020016000208190555050505062000803565b600033905090565b60008060009054906101000a900473ffffffffffffffffffffffffffffffffffffffff169050816000806101000a81548173ffffffffffffffffffffffffffffffffffffffff021916908373ffffffffffffffffffffffffffffffffffffffff1602179055508173ffffffffffffffffffffffffffffffffffffffff168173ffffffffffffffffffffffffffffffffffffffff167f8be0079c531659141344cd1fd0a4f28419497f9722a3daafe3b4186f6b6457e060405160405180910390a35050565b600073ffffffffffffffffffffffffffffffffffffffff168273ffffffffffffffffffffffffffffffffffffffff16036200022f576040517f08c379a00000000000000000000000000000000000000000000000000000000081526004016200022690620006c3565b60405180910390fd5b62000243600083836200033660201b60201c565b806003600082825462000257919062000714565b9250508190555080600160008473ffffffffffffffffffffffffffffffffffffffff1673ffffffffffffffffffffffffffffffffffffffff1681526020019081526020016000206000828254620002af919062000714565b925050819055508173ffffffffffffffffffffffffffffffffffffffff16600073ffffffffffffffffffffffffffffffffffffffff167fddf252ad1be2c89b69c2b068fc378daa952ba7f163c4a11628f55a4df523b3ef8360405162000316919062000782565b60405180910390a362000332600083836200033b60201b60201c565b5050565b505050565b505050565b8280546200034e90620007ce565b90600052602060002090601f016020900481019282620003725760008555620003be565b82601f106200038d57805160ff1916838001178555620003be565b82800160010185558215620003be579182015b82811115620003bd578251825591602001919060010190620003a0565b5b509050620003cd9190620003d1565b5090565b5b80821115620003ec576000816000905550600101620003d2565b5090565b6000604051905090565b600080fd5b600080fd5b600080fd5b600080fd5b6000601f19601f8301169050919050565b7f4e487b7100000000000000000000000000000000000000000000000000000000600052604160045260246000fd5b62000459826200040e565b810181811067ffffffffffffffff821117156200047b576200047a6200041f565b5b80604052505050565b600062000490620003f0565b90506200049e82826200044e565b919050565b600067ffffffffffffffff821115620004c157620004c06200041f565b5b620004cc826200040e565b9050602081019050919050565b60005b83811015620004f9578082015181840152602081019050620004dc565b8381111562000509576000848401525b50505050565b6000620005266200052084620004a3565b62000484565b90508281526020810184848401111562000545576200054462000409565b5b62000552848285620004d9565b509392505050565b600082601f83011262000572576200057162000404565b5b8151620005848482602086016200050f565b91505092915050565b6000819050919050565b620005a2816200058d565b8114620005ae57600080fd5b50565b600081519050620005c28162000597565b92915050565b600080600060608486031215620005e457620005e3620003fa565b5b600084015167ffffffffffffffff811115620006055762000604620003ff565b5b62000613868287016200055a565b935050602084015167ffffffffffffffff811115620006375762000636620003ff565b5b62000645868287016200055a565b92505060406200065886828701620005b1565b9150509250925092565b600082825260208201905092915050565b7f45524332303a206d696e7420746f20746865207a65726f206164647265737300600082015250565b6000620006ab601f8362000662565b9150620006b88262000673565b602082019050919050565b60006020820190508181036000830152620006de816200069c565b9050919050565b7f4e487b7100000000000000000000000000000000000000000000000000000000600052601160045260246000fd5b600062000721826200058d565b91506200072e836200058d565b9250827fffffffffffffffffffffffffffffffffffffffffffffffffffffffffffffffff03821115620007665762000765620006e5565b5b828201905092915050565b6200077c816200058d565b82525050565b600060208201905062000799600083018462000771565b92915050565b7f4e487b7100000000000000000000000000000000000000000000000000000000600052602260045260246000fd5b60006002820490506001821680620007e757607f821691505b602082108103620007fd57620007fc6200079f565b5b50919050565b61216180620008136000396000f3fe608060405234801561001057600080fd5b506004361061012c5760003560e01c80636b7e2d86116100ad578063a457c2d711610071578063a457c2d71461030f578063a9059cbb1461033f578063dd62ed3e1461036f578063dfae30351461039f578063f2fde38b146103bb5761012c565b80636b7e2d861461027d57806370a0823114610299578063715018a6146102c95780638da5cb5b146102d357806395d89b41146102f15761012c565b806339509351116100f457806339509351146101eb5780633ccfd60b1461021b578063412664ae146102255780636335b8011461024157806369f662971461025f5761012c565b806306fdde0314610131578063095ea7b31461014f57806318160ddd1461017f57806323b872dd1461019d578063313ce567146101cd575b600080fd5b6101396103d7565b6040516101469190611625565b60405180910390f35b610169600480360381019061016491906116e0565b610469565b604051610176919061173b565b60405180910390f35b61018761048c565b6040516101949190611765565b60405180910390f35b6101b760048036038101906101b29190611780565b610496565b6040516101c4919061173b565b60405180910390f35b6101d56104c5565b6040516101e291906117ef565b60405180910390f35b610205600480360381019061020091906116e0565b6104ce565b604051610212919061173b565b60405180910390f35b610223610578565b005b61023f600480360381019061023a91906116e0565b6107f5565b005b610249610928565b6040516102569190611819565b60405180910390f35b610267610952565b6040516102749190611819565b60405180910390f35b61029760048036038101906102929190611834565b61097c565b005b6102b360048036038101906102ae9190611834565b610a3c565b6040516102c09190611765565b60405180910390f35b6102d1610a85565b005b6102db610b0d565b6040516102e89190611819565b60405180910390f35b6102f9610b36565b6040516103069190611625565b60405180910390f35b610329600480360381019061032491906116e0565b610bc8565b604051610336919061173b565b60405180910390f35b610359600480360381019061035491906116e0565b610cb2565b604051610366919061173b565b60405180910390f35b61038960048036038101906103849190611861565b610cd5565b6040516103969190611765565b60405180910390f35b6103b960048036038101906103b49190611834565b610d5c565b005b6103d560048036038101906103d09190611834565b610e1c565b005b6060600480546103e6906118d0565b80601f0160208091040260200160405190810160405280929190818152602001828054610412906118d0565b801561045f5780601f106104345761010080835404028352916020019161045f565b820191906000526020600020905b81548152906001019060200180831161044257829003601f168201915b5050505050905090565b600080610474610f13565b9050610481818585610f1b565b600191505092915050565b6000600354905090565b6000806104a1610f13565b90506104ae858285610f2b565b6104b9858585610fb7565b60019150509392505050565b60006012905090565b6000806104d9610f13565b905061056d818585600260008673ffffffffffffffffffffffffffffffffffffffff1673ffffffffffffffffffffffffffffffffffffffff16815260200190815260200160002060008973ffffffffffffffffffffffffffffffffffffffff1673ffffffffffffffffffffffffffffffffffffffff168152602001908152602001600020546105689190611930565b610f1b565b600191505092915050565b610580610b0d565b73ffffffffffffffffffffffffffffffffffffffff163373ffffffffffffffffffffffffffffffffffffffff16036105ed576040517f08c379a00000000000000000000000000000000000000000000000000000000081526004016105e4906119d2565b60405180910390fd5b6006546106006105fb610b0d565b610a3c565b1015610641576040517f08c379a000000000000000000000000000000000000000000000000000000000815260040161063890611a3e565b60405180910390fd5b60001515600860009054906101000a900473ffffffffffffffffffffffffffffffffffffffff1673ffffffffffffffffffffffffffffffffffffffff1663602e03b4336040518263ffffffff1660e01b81526004016106a09190611819565b602060405180830381865afa1580156106bd573d6000803e3d6000fd5b505050506040513d601f19601f820116820180604052508101906106e19190611a8a565b151514610723576040517f08c379a000000000000000000000000000000000000000000000000000000000815260040161071a90611b03565b60405180910390fd5b61073761072e610b0d565b33600654610fb7565b600860009054906101000a900473ffffffffffffffffffffffffffffffffffffffff1673ffffffffffffffffffffffffffffffffffffffff16632434b593336040518263ffffffff1660e01b81526004016107929190611819565b600060405180830381600087803b1580156107ac57600080fd5b505af11580156107c0573d6000803e3d6000fd5b505050506107f333600960009054906101000a900473ffffffffffffffffffffffffffffffffffffffff16600654610f1b565b565b80600760003373ffffffffffffffffffffffffffffffffffffffff1673ffffffffffffffffffffffffffffffffffffffff168152602001908152602001600020541015610877576040517f08c379a000000000000000000000000000000000000000000000000000000000815260040161086e90611b6f565b60405180910390fd5b61087f610b0d565b73ffffffffffffffffffffffffffffffffffffffff163373ffffffffffffffffffffffffffffffffffffffff16036108ec576040517f08c379a00000000000000000000000000000000000000000000000000000000081526004016108e390611c01565b60405180910390fd5b6108f7338383610fb7565b61092433600960009054906101000a900473ffffffffffffffffffffffffffffffffffffffff1683610f1b565b5050565b6000600960009054906101000a900473ffffffffffffffffffffffffffffffffffffffff16905090565b6000600860009054906101000a900473ffffffffffffffffffffffffffffffffffffffff16905090565b610984610f13565b73ffffffffffffffffffffffffffffffffffffffff166109a2610b0d565b73ffffffffffffffffffffffffffffffffffffffff16146109f8576040517f08c379a00000000000000000000000000000000000000000000000000000000081526004016109ef90611c6d565b60405180910390fd5b80600960006101000a81548173ffffffffffffffffffffffffffffffffffffffff021916908373ffffffffffffffffffffffffffffffffffffffff16021790555050565b6000600760008373ffffffffffffffffffffffffffffffffffffffff1673ffffffffffffffffffffffffffffffffffffffff168152602001908152602001600020549050919050565b610a8d610f13565b73ffffffffffffffffffffffffffffffffffffffff16610aab610b0d565b73ffffffffffffffffffffffffffffffffffffffff1614610b01576040517f08c379a0000000000000000000000000000000000000000000000000000000008152600401610af890611c6d565b60405180910390fd5b610b0b6000611073565b565b60008060009054906101000a900473ffffffffffffffffffffffffffffffffffffffff16905090565b606060058054610b45906118d0565b80601f0160208091040260200160405190810160405280929190818152602001828054610b71906118d0565b8015610bbe5780601f10610b9357610100808354040283529160200191610bbe565b820191906000526020600020905b815481529060010190602001808311610ba157829003601f168201915b5050505050905090565b600080610bd3610f13565b90506000600260008373ffffffffffffffffffffffffffffffffffffffff1673ffffffffffffffffffffffffffffffffffffffff16815260200190815260200160002060008673ffffffffffffffffffffffffffffffffffffffff1673ffffffffffffffffffffffffffffffffffffffff16815260200190815260200160002054905083811015610c99576040517f08c379a0000000000000000000000000000000000000000000000000000000008152600401610c9090611cff565b60405180910390fd5b610ca68286868403610f1b565b60019250505092915050565b600080610cbd610f13565b9050610cca818585610fb7565b600191505092915050565b6000600260008473ffffffffffffffffffffffffffffffffffffffff1673ffffffffffffffffffffffffffffffffffffffff16815260200190815260200160002060008373ffffffffffffffffffffffffffffffffffffffff1673ffffffffffffffffffffffffffffffffffffffff16815260200190815260200160002054905092915050565b610d64610f13565b73ffffffffffffffffffffffffffffffffffffffff16610d82610b0d565b73ffffffffffffffffffffffffffffffffffffffff1614610dd8576040517f08c379a0000000000000000000000000000000000000000000000000000000008152600401610dcf90611c6d565b60405180910390fd5b80600860006101000a81548173ffffffffffffffffffffffffffffffffffffffff021916908373ffffffffffffffffffffffffffffffffffffffff16021790555050565b610e24610f13565b73ffffffffffffffffffffffffffffffffffffffff16610e42610b0d565b73ffffffffffffffffffffffffffffffffffffffff1614610e98576040517f08c379a0000000000000000000000000000000000000000000000000000000008152600401610e8f90611c6d565b60405180910390fd5b600073ffffffffffffffffffffffffffffffffffffffff168173ffffffffffffffffffffffffffffffffffffffff1603610f07576040517f08c379a0000000000000000000000000000000000000000000000000000000008152600401610efe90611d91565b60405180910390fd5b610f1081611073565b50565b600033905090565b610f26838383611137565b505050565b6000610f378484610cd5565b90507fffffffffffffffffffffffffffffffffffffffffffffffffffffffffffffffff8114610fb15781811015610fa3576040517f08c379a0000000000000000000000000000000000000000000000000000000008152600401610f9a90611dfd565b60405180910390fd5b610fb08484848403610f1b565b5b50505050565b80600760008573ffffffffffffffffffffffffffffffffffffffff1673ffffffffffffffffffffffffffffffffffffffff16815260200190815260200160002060008282546110069190611e1d565b9250508190555080600760008473ffffffffffffffffffffffffffffffffffffffff1673ffffffffffffffffffffffffffffffffffffffff168152602001908152602001600020600082825461105c9190611930565b9250508190555061106e838383611300565b505050565b60008060009054906101000a900473ffffffffffffffffffffffffffffffffffffffff169050816000806101000a81548173ffffffffffffffffffffffffffffffffffffffff021916908373ffffffffffffffffffffffffffffffffffffffff1602179055508173ffffffffffffffffffffffffffffffffffffffff168173ffffffffffffffffffffffffffffffffffffffff167f8be0079c531659141344cd1fd0a4f28419497f9722a3daafe3b4186f6b6457e060405160405180910390a35050565b600073ffffffffffffffffffffffffffffffffffffffff168373ffffffffffffffffffffffffffffffffffffffff16036111a6576040517f08c379a000000000000000000000000000000000000000000000000000000000815260040161119d90611ec3565b60405180910390fd5b600073ffffffffffffffffffffffffffffffffffffffff168273ffffffffffffffffffffffffffffffffffffffff1603611215576040517f08c379a000000000000000000000000000000000000000000000000000000000815260040161120c90611f55565b60405180910390fd5b80600260008573ffffffffffffffffffffffffffffffffffffffff1673ffffffffffffffffffffffffffffffffffffffff16815260200190815260200160002060008473ffffffffffffffffffffffffffffffffffffffff1673ffffffffffffffffffffffffffffffffffffffff168152602001908152602001600020819055508173ffffffffffffffffffffffffffffffffffffffff168373ffffffffffffffffffffffffffffffffffffffff167f8c5be1e5ebec7d5bd14f71427d1e84f3dd0314c0f7b2291e5b200ac8c7c3b925836040516112f39190611765565b60405180910390a3505050565b600073ffffffffffffffffffffffffffffffffffffffff168373ffffffffffffffffffffffffffffffffffffffff160361136f576040517f08c379a000000000000000000000000000000000000000000000000000000000815260040161136690611fe7565b60405180910390fd5b600073ffffffffffffffffffffffffffffffffffffffff168273ffffffffffffffffffffffffffffffffffffffff16036113de576040517f08c379a00000000000000000000000000000000000000000000000000000000081526004016113d590612079565b60405180910390fd5b6113e9838383611582565b6000600160008573ffffffffffffffffffffffffffffffffffffffff1673ffffffffffffffffffffffffffffffffffffffff16815260200190815260200160002054905081811015611470576040517f08c379a00000000000000000000000000000000000000000000000000000000081526004016114679061210b565b60405180910390fd5b818103600160008673ffffffffffffffffffffffffffffffffffffffff1673ffffffffffffffffffffffffffffffffffffffff1681526020019081526020016000208190555081600160008573ffffffffffffffffffffffffffffffffffffffff1673ffffffffffffffffffffffffffffffffffffffff16815260200190815260200160002060008282546115059190611930565b925050819055508273ffffffffffffffffffffffffffffffffffffffff168473ffffffffffffffffffffffffffffffffffffffff167fddf252ad1be2c89b69c2b068fc378daa952ba7f163c4a11628f55a4df523b3ef846040516115699190611765565b60405180910390a361157c848484611587565b50505050565b505050565b505050565b600081519050919050565b600082825260208201905092915050565b60005b838110156115c65780820151818401526020810190506115ab565b838111156115d5576000848401525b50505050565b6000601f19601f8301169050919050565b60006115f78261158c565b6116018185611597565b93506116118185602086016115a8565b61161a816115db565b840191505092915050565b6000602082019050818103600083015261163f81846115ec565b905092915050565b600080fd5b600073ffffffffffffffffffffffffffffffffffffffff82169050919050565b60006116778261164c565b9050919050565b6116878161166c565b811461169257600080fd5b50565b6000813590506116a48161167e565b92915050565b6000819050919050565b6116bd816116aa565b81146116c857600080fd5b50565b6000813590506116da816116b4565b92915050565b600080604083850312156116f7576116f6611647565b5b600061170585828601611695565b9250506020611716858286016116cb565b9150509250929050565b60008115159050919050565b61173581611720565b82525050565b6000602082019050611750600083018461172c565b92915050565b61175f816116aa565b82525050565b600060208201905061177a6000830184611756565b92915050565b60008060006060848603121561179957611798611647565b5b60006117a786828701611695565b93505060206117b886828701611695565b92505060406117c9868287016116cb565b9150509250925092565b600060ff82169050919050565b6117e9816117d3565b82525050565b600060208201905061180460008301846117e0565b92915050565b6118138161166c565b82525050565b600060208201905061182e600083018461180a565b92915050565b60006020828403121561184a57611849611647565b5b600061185884828501611695565b91505092915050565b6000806040838503121561187857611877611647565b5b600061188685828601611695565b925050602061189785828601611695565b9150509250929050565b7f4e487b7100000000000000000000000000000000000000000000000000000000600052602260045260246000fd5b600060028204905060018216806118e857607f821691505b6020821081036118fb576118fa6118a1565b5b50919050565b7f4e487b7100000000000000000000000000000000000000000000000000000000600052601160045260246000fd5b600061193b826116aa565b9150611946836116aa565b9250827fffffffffffffffffffffffffffffffffffffffffffffffffffffffffffffffff0382111561197b5761197a611901565b5b828201905092915050565b7f43616e6e6f7420436c61696d20596f7572204f776e20546f6b656e7321000000600082015250565b60006119bc601d83611597565b91506119c782611986565b602082019050919050565b600060208201905081810360008301526119eb816119af565b9050919050565b7f4e6f204d6f726520546f6b656e73210000000000000000000000000000000000600082015250565b6000611a28600f83611597565b9150611a33826119f2565b602082019050919050565b60006020820190508181036000830152611a5781611a1b565b9050919050565b611a6781611720565b8114611a7257600080fd5b50565b600081519050611a8481611a5e565b92915050565b600060208284031215611aa057611a9f611647565b5b6000611aae84828501611a75565b91505092915050565b7f546f6b656e7320416c7265616479205769746864726177656421000000000000600082015250565b6000611aed601a83611597565b9150611af882611ab7565b602082019050919050565b60006020820190508181036000830152611b1c81611ae0565b9050919050565b7f4e6f204e65636573736172792046756e64732100000000000000000000000000600082015250565b6000611b59601383611597565b9150611b6482611b23565b602082019050919050565b60006020820190508181036000830152611b8881611b4c565b9050919050565b7f41646d696e2073656e6420746f6b656e73206f6e6c7920647572696e6720746860008201527f6520776974686472617721000000000000000000000000000000000000000000602082015250565b6000611beb602b83611597565b9150611bf682611b8f565b604082019050919050565b60006020820190508181036000830152611c1a81611bde565b9050919050565b7f4f776e61626c653a2063616c6c6572206973206e6f7420746865206f776e6572600082015250565b6000611c57602083611597565b9150611c6282611c21565b602082019050919050565b60006020820190508181036000830152611c8681611c4a565b9050919050565b7f45524332303a2064656372656173656420616c6c6f77616e63652062656c6f7760008201527f207a65726f000000000000000000000000000000000000000000000000000000602082015250565b6000611ce9602583611597565b9150611cf482611c8d565b604082019050919050565b60006020820190508181036000830152611d1881611cdc565b9050919050565b7f4f776e61626c653a206e6577206f776e657220697320746865207a65726f206160008201527f6464726573730000000000000000000000000000000000000000000000000000602082015250565b6000611d7b602683611597565b9150611d8682611d1f565b604082019050919050565b60006020820190508181036000830152611daa81611d6e565b9050919050565b7f45524332303a20696e73756666696369656e7420616c6c6f77616e6365000000600082015250565b6000611de7601d83611597565b9150611df282611db1565b602082019050919050565b60006020820190508181036000830152611e1681611dda565b9050919050565b6000611e28826116aa565b9150611e33836116aa565b925082821015611e4657611e45611901565b5b828203905092915050565b7f45524332303a20617070726f76652066726f6d20746865207a65726f2061646460008201527f7265737300000000000000000000000000000000000000000000000000000000602082015250565b6000611ead602483611597565b9150611eb882611e51565b604082019050919050565b60006020820190508181036000830152611edc81611ea0565b9050919050565b7f45524332303a20617070726f766520746f20746865207a65726f20616464726560008201527f7373000000000000000000000000000000000000000000000000000000000000602082015250565b6000611f3f602283611597565b9150611f4a82611ee3565b604082019050919050565b60006020820190508181036000830152611f6e81611f32565b9050919050565b7f45524332303a207472616e736665722066726f6d20746865207a65726f20616460008201527f6472657373000000000000000000000000000000000000000000000000000000602082015250565b6000611fd1602583611597565b9150611fdc82611f75565b604082019050919050565b6000602082019050818103600083015261200081611fc4565b9050919050565b7f45524332303a207472616e7366657220746f20746865207a65726f206164647260008201527f6573730000000000000000000000000000000000000000000000000000000000602082015250565b6000612063602383611597565b915061206e82612007565b604082019050919050565b6000602082019050818103600083015261209281612056565b9050919050565b7f45524332303a207472616e7366657220616d6f756e742065786365656473206260008201527f616c616e63650000000000000000000000000000000000000000000000000000602082015250565b60006120f5602683611597565b915061210082612099565b604082019050919050565b60006020820190508181036000830152612124816120e8565b905091905056fea2646970667358221220459b2a37efe1107c0c9ba5b463799e61afc9503b7cb9b34f3ecfb3eeca556c2264736f6c634300080d0033",
  "immutableReferences": {},
  "source": "//SPDX-License-Identifier: MIT\r\n\r\nimport \"@openzeppelin/contracts/access/Ownable.sol\";\r\nimport \"@openzeppelin/contracts/token/ERC20/ERC20.sol\";\r\nimport \"./LotteriaInfo.sol\";\r\nimport \"./Lotteria.sol\";\r\n\r\npragma solidity ^0.8.7;\r\n\r\ncontract LotteriaToken is Ownable, ERC20{\r\n\r\n    uint private registrationAmountTokens = 5;\r\n    mapping(address=>uint)private _balances;\r\n    LotteriaInfo private lotteryInfo;\r\n    Lotteria private lottery;\r\n\r\n    constructor(string memory name, string memory symbol, uint totalSupply)ERC20(name, symbol){\r\n        _mint(msg.sender, totalSupply);\r\n        _balances[msg.sender] = totalSupply;\r\n\r\n    }\r\n\r\n    function initLotteryContract(address _lotteryContract)public onlyOwner{\r\n        lottery = Lotteria(_lotteryContract);\r\n    }\r\n\r\n    function getLotteryContract()public view returns(address){\r\n        return address(lottery);\r\n    }\r\n\r\n\r\n    function initLotteryInfoContract(address _lotteryInfoContract)public onlyOwner{\r\n        lotteryInfo = LotteriaInfo(_lotteryInfoContract);\r\n    }\r\n\r\n    function getLotteryInfoContract()public view returns(address){\r\n        return address(lotteryInfo);\r\n    }\r\n\r\n\r\n    function _transfer(\r\n        address _from,\r\n        address _to,\r\n        uint _amount\r\n        )internal virtual override{\r\n            _balances[_from] -= _amount;\r\n            _balances[_to] += _amount;\r\n            super._transfer(_from, _to, _amount);\r\n        }\r\n\r\n\r\n    function _approve(\r\n        address owner,\r\n        address spender,\r\n        uint256 amount\r\n    ) internal virtual override {\r\n        super._approve(owner, spender, amount);\r\n    }\r\n\r\n\r\n\r\n    function withdraw()external{\r\n        require(msg.sender != owner(), \"Cannot Claim Your Own Tokens!\");\r\n        require(balanceOf(owner()) >= registrationAmountTokens, \"No More Tokens!\");\r\n        require(lotteryInfo.registrationStatus(msg.sender) == false, \"Tokens Already Withdrawed!\");\r\n        _transfer(owner(), msg.sender, registrationAmountTokens);\r\n        lotteryInfo.registrationSuccesfully(msg.sender);\r\n        _approve(msg.sender, address(lottery), registrationAmountTokens);\r\n    }\r\n\r\n\r\n\r\n    function sendToken(address _to, uint _amount)external{\r\n        require(_balances[msg.sender] >= _amount, \"No Necessary Funds!\");\r\n        require(msg.sender != owner(), \"Admin send tokens only during the withdraw!\");\r\n        _transfer(msg.sender, _to, _amount);\r\n        _approve(msg.sender, address(lottery), _amount);\r\n    }\r\n\r\n\r\n\r\n    function balanceOf(address addToCheck)public view virtual override returns(uint){\r\n        return _balances[addToCheck];\r\n    }\r\n\r\n}\r\n",
  "sourcePath": "C:\\Users\\Danilo Gigli\\Desktop\\Solidity\\myProjects\\MagicLottery\\contracts\\LotteriaToken.sol",
  "compiler": {
    "name": "solc",
    "version": "0.8.13+commit.abaa5c0e.Emscripten.clang"
  },
  "schemaVersion": "3.4.6",
  "updatedAt": "2022-04-21T16:54:56.868Z",
  "devdoc": {
    "kind": "dev",
    "methods": {
      "allowance(address,address)": {
        "details": "See {IERC20-allowance}."
      },
      "approve(address,uint256)": {
        "details": "See {IERC20-approve}. NOTE: If `amount` is the maximum `uint256`, the allowance is not updated on `transferFrom`. This is semantically equivalent to an infinite approval. Requirements: - `spender` cannot be the zero address."
      },
      "decimals()": {
        "details": "Returns the number of decimals used to get its user representation. For example, if `decimals` equals `2`, a balance of `505` tokens should be displayed to a user as `5.05` (`505 / 10 ** 2`). Tokens usually opt for a value of 18, imitating the relationship between Ether and Wei. This is the value {ERC20} uses, unless this function is overridden; NOTE: This information is only used for _display_ purposes: it in no way affects any of the arithmetic of the contract, including {IERC20-balanceOf} and {IERC20-transfer}."
      },
      "decreaseAllowance(address,uint256)": {
        "details": "Atomically decreases the allowance granted to `spender` by the caller. This is an alternative to {approve} that can be used as a mitigation for problems described in {IERC20-approve}. Emits an {Approval} event indicating the updated allowance. Requirements: - `spender` cannot be the zero address. - `spender` must have allowance for the caller of at least `subtractedValue`."
      },
      "increaseAllowance(address,uint256)": {
        "details": "Atomically increases the allowance granted to `spender` by the caller. This is an alternative to {approve} that can be used as a mitigation for problems described in {IERC20-approve}. Emits an {Approval} event indicating the updated allowance. Requirements: - `spender` cannot be the zero address."
      },
      "name()": {
        "details": "Returns the name of the token."
      },
      "owner()": {
        "details": "Returns the address of the current owner."
      },
      "renounceOwnership()": {
        "details": "Leaves the contract without owner. It will not be possible to call `onlyOwner` functions anymore. Can only be called by the current owner. NOTE: Renouncing ownership will leave the contract without an owner, thereby removing any functionality that is only available to the owner."
      },
      "symbol()": {
        "details": "Returns the symbol of the token, usually a shorter version of the name."
      },
      "totalSupply()": {
        "details": "See {IERC20-totalSupply}."
      },
      "transfer(address,uint256)": {
        "details": "See {IERC20-transfer}. Requirements: - `to` cannot be the zero address. - the caller must have a balance of at least `amount`."
      },
      "transferFrom(address,address,uint256)": {
        "details": "See {IERC20-transferFrom}. Emits an {Approval} event indicating the updated allowance. This is not required by the EIP. See the note at the beginning of {ERC20}. NOTE: Does not update the allowance if the current allowance is the maximum `uint256`. Requirements: - `from` and `to` cannot be the zero address. - `from` must have a balance of at least `amount`. - the caller must have allowance for ``from``'s tokens of at least `amount`."
      },
      "transferOwnership(address)": {
        "details": "Transfers ownership of the contract to a new account (`newOwner`). Can only be called by the current owner."
      }
    },
    "version": 1
  },
  "userdoc": {
    "kind": "user",
    "methods": {},
    "version": 1
  }
}